:1000000025C049C048C068C046C0DDC644C043C022
:1000100042C041C040C03FC03EC03DC03CC00102E4
:100020000000040000000000010204081020200469
:100030001008020202020202020202020000000094
:1000400038000000000037007D04840411241FBE26
:10005000CFE5D2E0DEBFCDBF10E0A0E6B0E0E2E148
:10006000F5E102C005900D92AE38B107D9F720E056
:10007000AEE8B0E001C01D92A43CB207E1F710E089
:10008000CAE4D0E003C02297FE0187D8C834D10764
:10009000D1F7F1D132CAB4CF877087B986B1806504
:1000A00086B9349BFECF85B144E080E090E026B174
:1000B000206526B9349BFECF54B125B130E0322FF4
:1000C0002227250F311D820F931F415081F79695EE
:1000D00087959695879508951F920F920FB60F9268
:1000E00011242F933F935F936F937F938F939F93ED
:1000F000EF93FF9380919800882309F4AFC020917B
:100100009600309197003093950020939400809151
:100110008A0090918B00820F931F90939700809399
:1001200096002091890021112DC0892F992786954D
:10013000869580939300813328F0E0E4E81BE093F8
:10014000930006C0813250F0805280939300E82FD4
:10015000F0E0E459FF4F808181950CC0813130F08F
:10016000E0E2E81BE0939300F0E001C0FC01E459F9
:10017000FF4F80818093920080919200992787FDA4
:10018000909567C02130C1F48091970080939300CF
:1001900087FF07C0809590E0909391008093900036
:1001A00004C08093900010929100809190009091F3
:1001B0009100880F991F15C0233071F4809197002A
:1001C0008093930090918800981718F48FE790E03F
:1001D00040C081E89FEF3DC0223031F4809197000C
:1001E00090E08058910935C0243009F045C0209135
:1001F0006A0030916B00C901880F991F90936B00C2
:1002000080936A002827392736FF05C081609093C4
:100210006B0080936A0080919600909197002091E6
:100220009400309195008227932796FF0EC080910D
:100230006A0090916B0076E0969587957A95E1F744
:10024000992790938F0080938E0080918E009091DB
:100250008F0090939100809390000EC080918C004D
:10026000609190007091910090E0DED680939000B4
:100270009093910090589EBD8091980091E08927BD
:1002800080939800FF91EF919F918F917F916F9153
:100290005F913F912F910F900FBE0F901F90189577
:1002A000CF92DF92EF92FF92CF93DF936B017C01AD
:1002B000C0E0D0E0A7019601BE0182EA90E0C7D479
:1002C0002196C830D105B1F7DF91CF91FF90EF9023
:1002D000DF90CF9008951F93CF93DF9389E0E1D50E
:1002E000EC0189E0DED58836914034F011E0C03E63
:1002F000D1401CF010E001C012E089E0D2D5863E6A
:1003000091050CF413E0812FDF91CF911F91089597
:10031000C8D5811522E0920710F08FEF91E0880F89
:10032000991F0895982F9095953550F4892F63E083
:1003300072D6482F892F6DEF6ED660E0815019C0BC
:100340009A3A60F49555892F6DEF65D64FEF480FB7
:10035000892F63E060D6682F80E00BC09A5A892FFE
:100360006DEF59D62FEF280F892F63E054D640E068
:10037000622FE3C4CF92DF92EF92FF920F93CF935D
:10038000DF931F92CDB7DEB780919E0090919F00C2
:10039000892B31F48EE1C6DF83DF82EA90E037D328
:1003A00080919E0090919F00019731F482E3BADF23
:1003B00077DF82EA90E02BD380919E0090919F009E
:1003C000029731F482E8AEDF6BDF82EA90E01FD360
:1003D00080919E0090919F00039731F48CEDA2DFF5
:1003E0005FDF82EA90E013D380919E0090919F009E
:1003F0000497C1F5C12CD12CEE24EA9453E0F52EDC
:1004000080919A0090919B00F701E81BF90BCF01B6
:1004100043E0969587954A95E1F70196C816D90667
:10042000B0F46FEF70E080E090E0D3D5462F68E045
:1004300070E080E090E04983CCD54981042F242FDF
:1004400082EA90E0BCD32FEFC21AD20AD9CF82EA57
:1004500090E00F90DF91CF910F91FF90EF90DF90A0
:10046000CF90D5C20F90DF91CF910F91FF90EF9079
:10047000DF90CF900895CF93DF931F92CDB7DEB773
:1004800086E886B9F89480B7807F80BF80B78260A5
:1004900080BF80B78F7E80BF80B7806280BF80B70B
:1004A000806480BF89B7806489BF80E88EBDB99AB7
:1004B00078948CE088BB80E090E020E80FB6F89458
:1004C00026BD86BD0FBE82EA90E033D260918700E0
:1004D00082EA90E03BD466246A947724739488245B
:1004E0008A9403E0902E8EE3C82E89E4D82EE12C66
:1004F000F12C10E890E4592E24E0222E312CEBDE72
:10050000482E81110BC021E030E03093860020930B
:10051000850030938200209381002DC032E0831348
:100520002AC0109282001092810081E090E09093A6
:1005300086008093850088E0EBDEBC01B3E0769511
:100540006795BA95E1F76093870082EA90E0FED361
:10055000A12CB12C0FEF2FEF4FEFB50182EA90E005
:100560002ED39FEFA91AB90AE8E0AE16B10491F7AD
:1005700082EA90E04CD220918100309182008091FB
:100580007F00909180002817390739F0213031051C
:1005900021F4F0DE82EA90E03AD2F1E04F1204C09A
:1005A00010928600109285008091850090918600BF
:1005B00020918300309184008217930759F10197AD
:1005C00049F5D8DE82EA90E022D280917D009091B8
:1005D0007E00019690937E0080937D000297D4F078
:1005E00010927E0010927D00109299006091990007
:1005F000683068F470E000E020E040E082EA90E0DB
:10060000DED2809199008F5F80939900EFCF82EACC
:1006100090E0FDD1809185009091860090938400B8
:10062000809383008091810090918200909380005C
:1006300080937F0082E030DDC296811522E0920730
:1006400028F490939B0080939A0004C070929B00C2
:1006500060929A0080919A0090919B00880F991F58
:10066000F401E81BF90BCF01F0939B00E0939A0093
:10067000880F991FBC0180E090E0FFE0660F771FB4
:10068000881F991FFA95D1F7A701960114D53093C9
:100690008B0020938A008FEF80938C0081E0FCDC3C
:1006A000969587958F3F910509F028F49093A100C6
:1006B0008093A00006C02FEF30E03093A10020937C
:1006C000A0008091A0009091A1008B30910508F0CE
:1006D000B2C030929F0020929E0006C085369105E0
:1006E00008F0DCC05092880080919E0090919F009D
:1006F0008093890020919C0030919D008217930780
:1007000071F0892B61F480917D0090917E000197BA
:1007100031F48EE107DEC4DD82EA90E078D1809189
:100720009E0090919F0020919C0030919D00821727
:10073000930771F0019761F480917D0090917E00A4
:10074000019731F482E3EEDDABDD82EA90E05FD128
:1007500080919E0090919F0020919C0030919D007F
:100760008217930771F0029761F480917D00909158
:100770007E00019731F482E8D5DD92DD82EA90E0D7
:1007800046D180919E0090919F0020919C003091D5
:100790009D008217930771F0039761F480917D00AB
:1007A00090917E00019731F48CEDBCDD79DD82EA19
:1007B00090E02DD180919E0090919F00049791F53B
:1007C00080917D0090917E00019761F5A12CB12C64
:1007D00080919A0090919B00F401E81BF90BCF01E6
:1007E00063E0969587956A95E1F70196A816B90694
:1007F000B0F46FEF70E080E090E0EBD3462F68E05C
:1008000070E080E090E04983E4D34981042F242FF5
:1008100082EA90E0D4D13FEFA31AB30AD9CF82EA9B
:1008200090E0F5D080919E0090919F0090939D0064
:1008300080939C0064CE23E030E030939F002093AF
:100840009E008833910508F454C08D33910510F44F
:1008500084E050C08234910510F486E04BC08734A8
:10086000910510F489E046C08C34910510F482E1C2
:1008700041C08135910510F485E13CC08635910574
:1008800010F480E237C08B35910510F486E232C057
:100890008036910508F022CF82E32CC08A3691057C
:1008A00020F430E5309388001FCF8F36910510F487
:1008B00084E620C0109388008B3A910508F414CF89
:1008C000833D910538F4E2E0F0E0F0939F00E0937F
:1008D0009E000ACF813F910538F421E030E030934B
:1008E0009F0020939E0000CF10929F0010929E00C8
:1008F000FBCE82E080938800F7CE22E540E068E0FE
:1009000070E082EA90E036C182EA90E000C0CF93C6
:10091000DF93EC018F819885009709F008D58D81D0
:1009200087FD04C060E0DF91CF91E5C2DF91CF91F8
:100930000895CF93DF93EC018D8187FD05C061E0C1
:10094000DAD260E08D8110D381E08883DF91CF918E
:100950000895EF92FF920F931F93CF93DF93EC01D3
:100960007B018F819885009709F0E1D49C8589856A
:10097000981303C083E090E002C084E090E0B701E8
:1009800053D38C019C838B833AD498878F830097B1
:1009900039F0A80160E070E0A9D5FA82E98204C0CC
:1009A0001C821B821A821982DF91CF911F910F91B5
:1009B000FF90EF900895FC0141E0948581859813A4
:1009C00040E0562F52955695569553705487862F72
:1009D00090E09C0174E0359527957A95E1F72370B6
:1009E0002187959587959595879583708287637004
:1009F000638787819085892B49F081E0521380E0DD
:100A0000841721F061817281CF01A3CF0895CF9225
:100A1000DF92EF92FF920F931F93CF93DF93CDB7A7
:100A2000DEB727970FB6F894DEBF0FBECDBF8C019F
:100A3000DC0117968D919C911897892B09F45CC065
:100A40000CD2F801C584D684E784F0886C197D093E
:100A50008E099F09623371058105910588F3F89429
:100A6000838194819A8389830780F085E02D7F01BB
:100A7000BFEFEB1AFB0A80818F83D8015196ED916D
:100A8000FC915297908153968C91982B9E839081E4
:100A9000809589238D838D818C8388E08B835E8113
:100AA0006D814F813B812C8189819A81D70150834F
:100AB00047FD252F3A952083262F39F0441F00C08B
:100AC00000006083000000C0F2CF38E04D916083E9
:100AD0000000019761F7D8015296FC93EE9351976D
:100AE0004F833B832C839A8389837894B6D1F80112
:100AF000658776878787908B27960FB6F894DEBF39
:100B00000FBECDBFDF91CF911F910F91FF90EF905E
:100B1000DF90CF9008951F93CF93DF93EC01162FB2
:100B20008881882329F08D8187FD02C060E0E3D1B0
:100B30001D838881882331F061E0812FDCD160E062
:100B4000812F12D2812F90E0FC01EE5CFF4FE491E7
:100B5000F0E0EE0FFF1FE45CFF4F259134913A8BDC
:100B6000298BFC01E85DFF4F84918B8BDF91CF9146
:100B70001F910895EF92FF920F931F93CF93DF93EE
:100B80001F92CDB7DEB77C018B01FC01108216826B
:100B900010861782158616861786108A622F49835B
:100BA0000ADFB801C701D5DE4981642FC7010F9064
:100BB000DF91CF911F910F91FF90EF90ACCF0F93EA
:100BC000CF93DF93FC01DB0161817281A617B70728
:100BD000D0F5C681CC2381F0D0E0842F90E0BE0117
:100BE00023D2492F822F90E0BE011ED2292F802FC1
:100BF00090E0BE0119D2092F34858185C781D08547
:100C0000381307C0CD0163E070E00ED28C0F9D1F3A
:100C10000BC0CD01880F991F880F991F8C0F9D1F46
:100C2000DC01A30FB11D1C923185DC01A30FB11DA6
:100C30004C933285DC01A30FB11D2C932385FC015D
:100C4000E20FF11D0083DF91CF910F9108956F9214
:100C50007F929F92AF92BF92CF92DF92EF92FF92DC
:100C60000F931F93CF93DF93FC013B0189019A01FE
:100C7000818192816817790708F051C0C901AA27BC
:100C8000BB27A82EC12ED22EE32EFF24BC2C902EE3
:100C90004681442381F0C42FD0E090E0BE01C4D14E
:100CA000A92E8C2D90E0BE01BFD1B92E802F90E0EF
:100CB000BE01BAD1992E54858185C781D08558133C
:100CC00008C0C30163E070E0AFD17E01E80EF91EF9
:100CD00017C07301EE0CFF1CEE0CFF1CEC0EFD1E8A
:100CE000832F9927AA27BB27E701C50FD11D4423CE
:100CF00029F0642F70E090E097D101C0982F98837D
:100D00008185D701A80FB11DAC928285D701A80FAC
:100D1000B11DBC928385F701E80FF11D9082DF9130
:100D2000CF911F910F91FF90EF90DF90CF90BF90E8
:100D3000AF909F907F906F900895962F50E060E065
:100D400070E0592B682BCB01BA010895FF920F93E5
:100D50001F93CF93DF93EC01FF24F394F60E2E81C3
:100D6000F21659F10F8118852150A9F06F3F49F40F
:100D700030E040E050E06FEF7FEF80E090E09BD10B
:100D80000CC08F2D90E0982F88270197622F70E07C
:100D90005CD19B0102C020E030E0F8018B819C8196
:100DA000AF01401B510B4817590730F4808190E088
:100DB000B9013AD19193F2CFFE82DF91CF911F9189
:100DC0000F91FF9008951F920F920FB60F9211246A
:100DD0002F933F938F939F93AF93BF938091B700CF
:100DE0009091B800A091B900B091BA003091B600CE
:100DF00023E0230F2D3720F40196A11DB11D05C05E
:100E000026E8230F0296A11DB11D2093B600809302
:100E1000B7009093B800A093B900B093BA00809146
:100E2000BB009091BC00A091BD00B091BE000196A6
:100E3000A11DB11D8093BB009093BC00A093BD0089
:100E4000B093BE00BF91AF919F918F913F912F9131
:100E50000F900FBE0F901F9018953FB7F894809198
:100E6000BB009091BC00A091BD00B091BE0022B724
:100E700008B601FE05C02F3F19F00196A11DB11D56
:100E80003FBF6627782F892F9A2F620F711D811D12
:100E9000911D42E0660F771F881F991F4A95D1F771
:100EA0000895863008F0865087709091BF00929523
:100EB000990F990F907C982B97B9369A3699FECF57
:100EC00084B125B190E0922B0895823081F018F41E
:100ED000813051F00895833019F0843009F008957D
:100EE0008CB58F7D8CBD08958AB58F7702C08AB589
:100EF0008F7D8ABD0895CF93DF9390E0FC01E85D7C
:100F0000FF4F2491FC01EE5CFF4F8491882349F14F
:100F100090E0880F991FFC01EE5BFF4FA591B49103
:100F2000845C9F4FFC01C591D4919FB7611108C0AB
:100F3000F8948C91209582238C93888182230AC017
:100F4000623051F4F8948C91322F309583238C9336
:100F50008881822B888304C0F8948C91822B8C9397
:100F60009FBFDF91CF9108950F931F93CF93DF938E
:100F70001F92CDB7DEB7282F30E0F901E25EFF4FB8
:100F80008491F901E85DFF4F1491F901EE5CFF4F88
:100F900004910023C1F0882319F0698396DF6981E9
:100FA000E02FF0E0EE0FFF1FE45CFF4FA591B4913E
:100FB0009FB7F8948C91611103C01095812301C0F3
:100FC000812B8C939FBF0F90DF91CF911F910F9139
:100FD0000895CF93DF9300D000D0CDB7DEB79B014B
:100FE000AC01611571058105910559F069833A835A
:100FF0004B835C836ED229813A814B815C815BD0CB
:1010000003C060E070E0CB010F900F900F900F9045
:10101000DF91CF910895002480FD060E660F11F038
:101020008695D1F7802D08950024552704C0080E19
:10103000591F880F991F009729F076956795B8F387
:101040007105B9F7802D952F0895AA1BBB1B51E19F
:1010500007C0AA1FBB1FA617B70710F0A61BB70B28
:10106000881F991F5A95A9F780959095BC01CD01CD
:101070000895A1E21A2EAA1BBB1BFD010DC0AA1FD9
:10108000BB1FEE1FFF1FA217B307E407F50720F0F1
:10109000A21BB30BE40BF50B661F771F881F991F6C
:1010A0001A9469F760957095809590959B01AC01B5
:1010B000BD01CF010895052E97FB16F400940FD0C3
:1010C00057FD05D0D6DF07FC02D046F408C0509586
:1010D0004095309521953F4F4F4F5F4F0895909524
:1010E0008095709561957F4F8F4F9F4F08956894BD
:1010F0000013E894A0E0B0E0EFE7F8E01DC0EFEFE8
:10110000E7F959016A015E23550FEE08FE2C8701AD
:101110009B01AC019E23990F660B762FCB0141D02A
:10112000CDB7DEB7EAE024C02F923F924F925F9294
:101130006F927F928F929F92AF92BF92CF92DF92E7
:10114000EF92FF920F931F93CF93DF93CDB7DEB74C
:10115000CA1BDB0B0FB6F894DEBF0FBECDBF0994E0
:101160002A88398848885F846E847D848C849B8437
:10117000AA84B984C884DF80EE80FD800C811B8145
:10118000AA81B981CE0FD11D0FB6F894DEBF0FBE74
:10119000CDBFED010895EE0FFF1F0590F491E02DF6
:1011A0000994DF93CF939F92A0E49A2E0024D0015C
:1011B000E001F00116950795F794E794D794C7944A
:1011C000B794A79448F41068A20FB31FC41FD51F8B
:1011D000E61FF71F081E191E220F331F441F551F3D
:1011E000661F771F881F991F9A9421F79D01AE01F2
:1011F000BF01C00111249F90CF91DF910895CF933B
:10120000DF938230910510F482E090E0E091C2001B
:10121000F091C30020E030E0A0E0B0E0309739F179
:101220004081518148175907B8F04817590771F4A0
:1012300082819381109729F013969C938E93129735
:101240002CC09093C3008093C20027C021153105A4
:1012500031F04217530718F0A901DB0101C0EF017B
:101260009A01BD01DF010280F381E02DD7CF211566
:101270003105F9F0281B390B2430310580F48A81BF
:101280009B816115710521F0FB019383828304C06A
:101290009093C3008093C200FE01329644C0FE01C9
:1012A000E20FF31F819391932250310939832883F0
:1012B0003AC02091C0003091C100232B41F420910D
:1012C0006200309163003093C1002093C0002091F0
:1012D0006000309161002115310541F42DB73EB712
:1012E0004091640050916500241B350BE091C000D3
:1012F000F091C100E217F307A0F42E1B3F0B281753
:10130000390778F0AC014E5F5F4F2417350748F07E
:101310004E0F5F1F5093C1004093C0008193919383
:1013200002C0E0E0F0E0CF01DF91CF910895CF93CC
:10133000DF93009709F487C0FC0132971382128271
:10134000C091C200D091C300209781F420813181E7
:10135000280F391F8091C0009091C1008217930718
:1013600079F5F093C100E093C0006DC0DE0120E08C
:1013700030E0AE17BF0750F412964D915C91139771
:101380009D014115510509F1DA01F3CFB383A28321
:1013900040815181840F951F8A179B0771F48D91AD
:1013A0009C911197840F951F0296918380831296CA
:1013B0008D919C911397938382832115310529F494
:1013C000F093C300E093C2003EC0D9011396FC9392
:1013D000EE9312974D915D91A40FB51FEA17FB078D
:1013E00079F480819181840F951F0296D90111961D
:1013F0009C938E938281938113969C938E931297E4
:10140000E0E0F0E08A819B81009719F0FE01EC0199
:10141000F9CFCE01029628813981820F931F209146
:10142000C0003091C1002817390769F4309729F4BA
:101430001092C3001092C20002C013821282D09395
:10144000C100C093C000DF91CF910895A0E0B0E04B
:10145000EBE2FAE06FCEEC01688179818A819B81B1
:10146000611571058105910521F464E279ED8BE543
:1014700097E02DE133EF41E050E01DDE49015A01D4
:1014800027EA31E440E050E032DE69017A01C5012B
:10149000B4012CEE34EF4FEF5FEF29DE89019A01A2
:1014A000C00ED11EE21EF31EF7FE06C081E0C81A70
:1014B000D108E10880E8F80AC882D982EA82FB8272
:1014C000C701B6019F77CDB7DEB7ECE04FCEBEDFE8
:1014D000089586E690E0BADF089560936600709301
:1014E000670080936800909369000895DC0101C053
:1014F0006D9341505040E0F7089510E0CAE4D0E009
:1015000003C0FE014ADE2296CC34D107D1F7F8940D
:02151000FFCF0B
:101512000000C400800001000000AA00000C192590
:10152200313C47515A626A70757A7D7E7F010001B3
:0E153200000100010001002328020106FF0055
:00000001FF
