:10000000A6C0CAC0C9C02BC1C7C04CC6C5C0C4C0E9
:10001000C3C0C2C0C1C0C0C0BFC0BEC0BDC000035D
:1000200006090C0F1215181B1E2124272A2D303308
:1000300036393B3E414346494B4E50525557595B2A
:100040005E6062646667696B6C6E707172747576FF
:100050007778797A7B7B7C7D7D7E7E7E7E7E7F7EDF
:100060007E7E7E7E7D7D7C7B7B7A797877767574EB
:100070007271706E6C6B6967666462605E5B595723
:100080005552504E4B494643413E3B393633302D55
:100090002A2724211E1B1815120F0C09060300FD28
:1000A000FAF7F4F1EEEBE8E5E2DFDCD9D6D3D0CD18
:1000B000CAC7C5C2BFBDBAB7B5B2B0AEABA9A7A5D6
:1000C000A2A09E9C9A9997959492908F8E8C8B8AE1
:1000D00089888786858584838382828282828182E1
:1000E000828282828383848585868788898A8B8CB5
:1000F0008E8F9092949597999A9C9EA0A2A5A7A95D
:10010000ABAEB0B2B5B7BABDBFC2C5C7CACDD0D30A
:10011000D6D9DCDFE2E5E8EBEEF1F4F7FAFD010217
:100120000000040000000000010204081020200468
:100130001008020202020202020202020000000093
:100140003800000000003700C403310438041124D3
:100150001FBECFE5D2E0DEBFCDBF10E0A0E6B0E02D
:10016000E6ECF3E102C005900D92AE36B107D9F787
:1001700020E0AEE6B0E001C01D92A83CB207E1F776
:1001800010E0C6EAD0E003C02197FE01A8D7C43A28
:10019000D107D1F7E2D60BC933CFE82FF0E0E25E0A
:1001A000FF4F84910895F89480B7887F80BF80B70F
:1001B000826080BF80B78F7E80BF80B7806280BF43
:1001C00080B7806480BF89B7806489BF80E88EBDB6
:1001D000B99A789408958F929F92AF92BF92CF92DE
:1001E000DF92EF92FF92BC0180E090E024E234EFD6
:1001F00040E050E022D749015A018EE0B694A7941E
:10020000979487948A95D1F7F89490926B00809296
:100210006A007894FF90EF90DF90CF90BF90AF90FE
:100220009F908F900895809369000895809593EC36
:10023000980F97FD06C09BE3981B9093680093E08E
:1002400001C094E08D3B30F0893C38F091E08D3D69
:1002500008F090E090937800089592E0FBCF1F9211
:100260000F920FB60F9211242F933F934F935F93EA
:100270006F937F938F939F93AF93BF93EF93FF936E
:100280008091C3008F5F8093C300809177008823A3
:1002900009F49EC08091750090917600909374004F
:1002A0008093730020916A0030916B00820F931F3E
:1002B000909376008093750020917800211109C0F9
:1002C000892F6BDF082E000C990B9093720080939E
:1002D0007100809178008130E9F4809176008093FC
:1002E000700087FF07C0809590E090937200809324
:1002F000710004C0809371001092720080917100AF
:1003000090917200880F991F805891099093720004
:100310008093710080917800833089F48091760019
:100320008093700090916800981718F48FE790E020
:1003300002C081E89FEF90937200809371008091DA
:100340007800823049F48091760090E080589109DD
:10035000909372008093710080917800843009F04E
:1003600045C02091660030916700C901880F991F30
:1003700090936700809366002827392736FF05C0D1
:1003800081609093670080936600209175003091A2
:10039000760080917300909174008227932796FFD6
:1003A0000EC0809166009091670026E09695879533
:1003B0002A95E1F7992790936F0080936E008091C2
:1003C0006E0090916F0090937200809371000EC048
:1003D00080916900609171007091720090E0C8D5C1
:1003E000809371009093720090589EBD9091770019
:1003F00081E0892780937700FF91EF91BF91AF91C2
:100400009F918F917F916F915F914F913F912F912C
:100410000F900FBE0F901F901895FC01738362839D
:1004200080E091E091838083148215821682178286
:100430000895AB01770F660B770BBA015527442758
:10044000FC01448355836683778308954F925F92BE
:100450006F927F928F929F92AF92BF92CF92DF92D4
:10046000EF92FF920F931F93CF93DF93EC019B01C9
:100470004C805D806E807F806A817B81072E000CBE
:10048000880B990B8901330F220B330B6301072C67
:10049000000CEE08FF08A90198012C193D094E092E
:1004A0005F09C9D549015A01840C951CA61CB71CCB
:1004B0008C829D82AE82BF82B501BB0C880B990BEA
:1004C0002881398140E050E0B6D549015A01BB2767
:1004D000B7FCBA95AB2D9A2D892DDF91CF911F9145
:1004E0000F91FF90EF90DF90CF90BF90AF909F90D3
:1004F0008F907F906F905F904F900895A0D153DEC2
:1005000088EB91E068DE20E03FEF40E050E060E003
:1005100070E085EA90E010D385EA90E02CC2FF926B
:100520000F931F93CF93DF936091880070E020E0DA
:1005300030E0A90185EA90E0FFD23AD1882309F49E
:1005400050C060918800813011F4615003C0823046
:1005500021F46F5F6093880023C0833009F5809198
:1005600087008F5F8093870080918200811116C081
:1005700081E0809382006093790070E020E030E0B9
:100580004FEF50E085EA90E0D7D285EA90E0F3D1D2
:1005900064E670E080E090E0F5D302C01092820043
:1005A00060918800677060938800809187008370F5
:1005B0008093870070E020E03FEF40E050E085EA64
:1005C00090E0BAD285EA90E0D6D18091880090E0A0
:1005D00063E070E0CDD487579F4FDC018D919C91F3
:1005E000FADD87E0E4D0EC0188E0E1D0F82E8091DC
:1005F000820081115AC00F2D192F80918300909194
:1006000084009801281B390B37FF03C031952195D1
:1006100031092F313105ECF08F2D08DE1093840065
:1006200000938300E0918800F0E0CF0163E070E088
:100630009FD487579F4FDC011296FC922FEF30E03A
:1006400040E050E0BF0185EA90E076D285EA90E094
:1006500092D18091850090918600FE01E81BF90BF4
:10066000CF01F7FF03C09195819591094F97ECF069
:10067000CE01B1DDD0938600C0938500E091880063
:10068000F0E0CF0163E070E073D487579F4FDC0147
:10069000CD93DC932FEF30E040E050E0BF0185EADE
:1006A00090E04AD285EA90E066D180918200813064
:1006B00009F061C060E070E08AE790E0C7DEB3DD7A
:1006C00080916C0090916D00019729F090936D00DE
:1006D00080936C0050C0C53FB1E0DB0728F4D09395
:1006E0006D00C0936C0006C084EF91E090936D00A4
:1006F00080936C0080916C0090916D00C29730F4F3
:1007000082E390E090936D0080936C00809188006C
:100710008F5F8093880090917900981710F4109261
:1007200088006091880070E02FEF3DE04FEF50E0CF
:1007300085EA90E001D285EA90E01DD180918800A1
:1007400090E063E070E014D487579F4FFC018081F4
:10075000918141DD8091880090E063E070E008D4F1
:1007600087579F4FDC0112968C9160DD6FEF70E030
:100770008AE790E05EDE60E070E0CB01DF91CF9130
:100780001F910F91FF90FEC260E072E08AE790E057
:1007900044CE4CD365E270E0EBD36AE170E0F9D36C
:1007A000CB016115744010F08FEF93E00895F1CF05
:1007B00089E03CD39C01833C914018F01092A40046
:1007C00007C02C3781E0380718F481E08093A4003B
:1007D0008091A300882319F0813059F02EC0109227
:1007E000A2008091A400882341F181E08093A300BE
:1007F00024C04091A4009091A2004423D1F0203E57
:10080000310510F483E00CC02C3241E0340710F4C1
:1008100082E006C02C37314018F01092A10002C0CF
:100820008093A1008091A100981738F48093A200D2
:1008300004C01092A300892F089580E0089520E05D
:1008400030E080E80FB6F89486BD26BD0FBE61E0AB
:1008500081E018D385EA90E020D068E285EA90E054
:10086000E4C122E540E068E070E085EA90E03FC145
:1008700085EA90E000C0CF93DF93EC018F819885EB
:10088000009709F0F5D48D8187FD04C060E0DF9109
:10089000CF91F8C2DF91CF910895CF93DF93EC0110
:1008A0008D8187FD05C061E0EDD260E08D8126D3AA
:1008B00081E08883DF91CF910895EF92FF920F93AB
:1008C0001F93CF93DF93EC017B018F819885009775
:1008D00009F0CED49C858985981719F084E090E0C2
:1008E00002C083E090E0B70143D38C019C838B83EB
:1008F0002AD498878F83009739F0A80160E070E0D0
:100900004FD5FA82E98204C01C821B821A821982A6
:10091000DF91CF911F910F91FF90EF900895FC010F
:1009200041E094858185981340E0562F5295569565
:10093000569553705487862F90E09C0174E035954E
:1009400027957A95E1F72370218795958795959559
:100950008795837082876370638787819085892BF1
:1009600049F081E0521380E0841721F061817281A7
:10097000CF01A3CF0895BF92CF92DF92EF92FF9263
:100980000F931F93CF93DF93CDB7DEB727970FB6A3
:10099000F894DEBF0FBECDBF8C01DC0117968D91A0
:1009A0009C911897892B09F463C0C6D1F801C584BE
:1009B000D684E784F088DC01CB018C199D09AE094F
:1009C000BF098C329140A105B10578F3F894D801A4
:1009D00013968D919C9114979A8389831796ED9124
:1009E000FC911897AF014F5F5F4F80818F835196C5
:1009F000ED91FC915297908153968C91982B9E8308
:100A00009081809589238D838D818C8388E08B8371
:100A10003E816D818F812B819C81A981BA81782F44
:100A2000B92ECD01DA01308377FDB32E2A95B0823D
:100A3000B62E39F0771F00C000006083000000C0B0
:100A4000F2CF28E07D9160830000019761F7D80123
:100A50005296FC93EE9351977F832B83BC829A83AB
:100A60008983789469D1F801658776878787908B29
:100A700027960FB6F894DEBF0FBECDBFDF91CF91A2
:100A80001F910F91FF90EF90DF90CF90BF9008954E
:100A90001F93CF93DF93EC01162F8881882329F0D1
:100AA0008D8187FD02C060E0EDD11D8388818823A0
:100AB00031F061E0812FE6D160E0812F1FD2812FDC
:100AC00090E0FC01EE5CFE4FE491F0E0EE0FFF1FC2
:100AD000E45CFE4F259134913A8B298BFC01E85D53
:100AE000FE4FE491EB8BDF91CF911F910895EF9230
:100AF000FF920F931F93CF93DF931F92CDB7DEB773
:100B00007C018B01FC0110821682108617821586EB
:100B100016861786108A622F498301DFB801C70144
:100B2000CCDE4981642FC7010F90DF91CF911F91D7
:100B30000F91FF90EF90ACCF4F925F926F927F92A8
:100B40008F929F92AF92BF92DF92EF92FF920F939C
:100B50001F93CF93DF93FC01EB0189019A018181FF
:100B600092816817790708F050C02901662477241C
:100B7000D42C812E922EA32EBB24E82CF02E46815D
:100B8000442389F0A42FB0E0842D90E0BD01F0D182
:100B9000D92E882D90E0BD01EBD1E92E802F90E079
:100BA000BD01E6D1F92E84859185A781B085891391
:100BB00007C0CE0163E070E0DBD1A80FB91F17C0FA
:100BC000CC0FDD1FCC0FDD1FAC0FBD1F032F112776
:100BD00022273327ED01C80FD11D442331F0642FA4
:100BE00070E0802F90E0C4D101C0902F9883818560
:100BF000ED01C80FD11DD8828285ED01C80FD11D2E
:100C0000E8828385A80FB11DFC92DF91CF911F91DF
:100C10000F91FF90EF90DF90BF90AF909F908F90DB
:100C20007F906F905F904F900895FF920F931F9366
:100C3000CF93DF93EC01FF24F394F60E2E81F2168E
:100C400059F10F8118852150A9F06F3F49F430E028
:100C500040E050E06FEF7FEF80E090E0D0D10CC03B
:100C60008F2D90E0982F88270197622F70E091D107
:100C70009B0102C020E030E0F8014B815C81CF0194
:100C8000801B910B8417950730F4808190E0B901A7
:100C90006FD19193F2CFFE82DF91CF911F910F918F
:100CA000FF9008951F920F920FB60F9211242F9369
:100CB0003F938F939F93AF93BF938091BA0090918E
:100CC000BB00A091BC00B091BD003091B90023E001
:100CD000230F2D3720F40196A11DB11D05C026E874
:100CE000230F0296A11DB11D2093B9008093BA0075
:100CF0009093BB00A093BC00B093BD008091BE0058
:100D00009091BF00A091C000B091C1000196A11DBB
:100D1000B11D8093BE009093BF00A093C000B0931C
:100D2000C100BF91AF919F918F913F912F910F90F3
:100D30000FBE0F901F9018953FB7F8948091BE009A
:100D40009091BF00A091C000B091C10022B708B639
:100D500001FE05C02F3F19F00196A11DB11D3FBF37
:100D6000BA2FA92F982F8827820F911DA11DB11D81
:100D7000BC01CD0142E0660F771F881F991F4A957D
:100D8000D1F708958F929F92AF92BF92CF92DF9248
:100D9000EF92FF926B017C01CFDF4B015C01C1142C
:100DA000D104E104F104F1F0E2D0C6DFDC01CB01B3
:100DB00088199909AA09BB09883E9340A105B10584
:100DC00070F321E0C21AD108E108F10888EE880E1C
:100DD00083E0981EA11CB11CC114D104E104F104EC
:100DE00021F7DDCFFF90EF90DF90CF90BF90AF90D5
:100DF0009F908F90089578948AB582608ABD8AB555
:100E000081608ABD83B7826083BF83B7816083BFFF
:100E100089B7826089BF80B7826080BF80B78160F8
:100E200080BF329A319A309A379A0895863008F006
:100E3000865087709091C2009295907F892B87B9D8
:100E4000369A3699FECF84B125B190E0922B089561
:100E5000823081F018F4813051F00895833019F018
:100E6000843009F008958CB58F7D8CBD08958AB5C6
:100E70008F7702C08AB58F7D8ABD08958CB5806456
:100E80008CBD0895CF93DF9390E0FC01E85DFE4FA9
:100E90002491FC01EE5CFE4F8491882361F190E087
:100EA000880F991FFC01EE5BFE4FC591D491FC01A8
:100EB000E45CFE4FA591B491611109C09FB7F8940D
:100EC0008881209582238883EC912E230BC0623089
:100ED00061F49FB7F8943881822F809583238883AB
:100EE000EC912E2B2C939FBF06C08FB7F894E8810E
:100EF0002E2B28838FBFDF91CF9108951F93CF931F
:100F0000DF93282F30E0F901E25EFE4F8491F90172
:100F1000E85DFE4FD491F901EE5CFE4FC491CC2305
:100F2000C1F0162F811194DFEC2FF0E0EE0FFF1FC0
:100F3000E45CFE4FA591B4918FB7F894111105C0F0
:100F40009C91ED2FE095E92302C0EC91ED2BEC9301
:100F50008FBFDF91CF911F9108954DDF8FDFCEDAE4
:100F6000C0E0D0E0DCDA2097E9F34AD8FBCF08955F
:100F70000024552704C0080E591F880F991F009799
:100F800029F076956795B8F37105B9F7802D952FFF
:100F90000895AA1BBB1B51E107C0AA1FBB1FA617C0
:100FA000B70710F0A61BB70B881F991F5A95A9F712
:100FB00080959095BC01CD010895A1E21A2EAA1B3F
:100FC000BB1BFD010DC0AA1FBB1FEE1FFF1FA217F9
:100FD000B307E407F50720F0A21BB30BE40BF50BF6
:100FE000661F771F881F991F1A9469F7609570957F
:100FF000809590959B01AC01BD01CF010895052E10
:1010000097FB16F400940FD057FD05D0D6DF07FCF0
:1010100002D046F408C050954095309521953F4F39
:101020004F4F5F4F089590958095709561957F4FD4
:101030008F4F9F4F089568940013E894A0E0B0E0AC
:10104000E3E2F8E01DC0EFEFE7F959016A015E2322
:10105000550FEE08FE2C87019B01AC019E23990FD2
:10106000660B762FCB0141D0CDB7DEB7EAE024C0C6
:101070002F923F924F925F926F927F928F929F92A8
:10108000AF92BF92CF92DF92EF92FF920F931F9396
:10109000CF93DF93CDB7DEB7CA1BDB0B0FB6F89447
:1010A000DEBF0FBECDBF09942A88398848885F8487
:1010B0006E847D848C849B84AA84B984C884DF80F8
:1010C000EE80FD800C811B81AA81B981CE0FD11DDC
:1010D0000FB6F894DEBF0FBECDBFED010895EE0F41
:1010E000FF1F0590F491E02D0994DF93CF939F9219
:1010F000A0E49A2E0024D001E001F0011695079596
:10110000F794E794D794C794B794A79448F41068D9
:10111000A20FB31FC41FD51FE61FF71F081E191EFD
:10112000220F331F441F551F661F771F881F991FEB
:101130009A9421F79D01AE01BF01C00111249F9037
:10114000CF91DF910895CF93DF938230910510F412
:1011500082E090E0E091C600F091C70020E030E02E
:10116000C0E0D0E0309711F1408151814817590714
:10117000C0F04817590761F482819381209719F0D4
:101180009B838A832BC09093C7008093C60026C0A0
:101190002115310519F04217530718F49A01BE01C1
:1011A000DF01EF010280F381E02DDCCF2115310555
:1011B00009F1281B390B2430310590F412968D91DA
:1011C0009C9113976115710521F0FB019383828334
:1011D00004C09093C7008093C600FD01329644C0BE
:1011E000FD01E20FF31F81939193225031092D935A
:1011F0003C933AC02091C4003091C500232B41F4A8
:1012000020916200309163003093C5002093C400A8
:1012100020916000309161002115310541F42DB716
:101220003EB74091640050916500241B350BE0915E
:10123000C400F091C500E217F307A0F42E1B3F0B8A
:101240002817390778F0AC014E5F5F4F2417350738
:1012500048F04E0F5F1F5093C5004093C400819328
:10126000919302C0E0E0F0E0CF01DF91CF910895CB
:101270000F931F93CF93DF93009709F48CC0FC0169
:101280003297138212820091C6001091C700011597
:10129000110581F420813181820F931F2091C400B8
:1012A0003091C5002817390779F5F093C500E09310
:1012B000C40071C0D80140E050E0AE17BF0750F441
:1012C00012962D913C911397AD012115310509F12D
:1012D000D901F3CF9D01DA013383228360817181CB
:1012E000860F971F8217930769F4EC0128813981D3
:1012F000260F371F2E5F3F4F318320838A819B81CA
:1013000093838283452B29F4F093C700E093C600B2
:1013100042C01396FC93EE931297ED0149915991B7
:101320009E01240F351FE217F30771F4808191812C
:10133000840F951F029611969C938E9382819381C0
:1013400013969C938E931297E0E0F0E0D8011296EA
:101350008D919C911397009719F0F8018C01F6CFAD
:101360008D919C9198012E5F3F4F820F931F20918A
:10137000C4003091C5002817390769F4309729F463
:101380001092C7001092C60002C0138212821093FE
:10139000C5000093C400DF91CF911F910F91089574
:1013A000DC0101C06D9341505040E0F7089510E01A
:1013B000C6EAD0E003C0FE0192DE2196C73AD1070B
:0613C000D1F7F894FFCF05
:0E13C6000000C8008000AA0028FF0100E80314
:00000001FF
